:1000000000308A0018280000223084008313000882
:10001000031917280630F800F701F70B0D28F80B25
:100020000C287B30F700F70B1328800B0A280800F8
:1000300003081F398300FF30A00083161F149F148C
:100040001F159F1107309C0083130030F8000638FD
:1000500083129200FF30831692008312A0102008B2
:1000600083168700831287100C309D009B010C3093
:10007000A100FA30A2000420A10B392840309B00D7
:100080000C30A100FA30A2000420A10B42288030DD
:100090009B000C30A100FA30A2000420A10B4B28D9
:1000A000C0309B000C30A100FA30A2000420A10B4C
:1000B0005428FF309B000C30A100FA30A20004202D
:0800C000A10B5D283628630046
:02400E00723FFF
:00000001FF
;PIC16F877A
;CRC=AF99  CREATED="01-Jul-16 11:13"
